{
  "abi": [
    {
      "inputs": [
        {
          "internalType": "address",
          "name": "_tokenX",
          "type": "address"
        },
        {
          "internalType": "address",
          "name": "_tokenY",
          "type": "address"
        }
      ],
      "stateMutability": "nonpayable",
      "type": "constructor"
    },
    {
      "anonymous": false,
      "inputs": [
        {
          "indexed": true,
          "internalType": "address",
          "name": "owner",
          "type": "address"
        },
        {
          "indexed": true,
          "internalType": "address",
          "name": "spender",
          "type": "address"
        },
        {
          "indexed": false,
          "internalType": "uint256",
          "name": "value",
          "type": "uint256"
        }
      ],
      "name": "Approval",
      "type": "event"
    },
    {
      "anonymous": false,
      "inputs": [
        {
          "indexed": true,
          "internalType": "address",
          "name": "from",
          "type": "address"
        },
        {
          "indexed": true,
          "internalType": "address",
          "name": "to",
          "type": "address"
        },
        {
          "indexed": false,
          "internalType": "uint256",
          "name": "value",
          "type": "uint256"
        }
      ],
      "name": "Transfer",
      "type": "event"
    },
    {
      "inputs": [
        {
          "internalType": "uint256",
          "name": "tokenXAmount",
          "type": "uint256"
        },
        {
          "internalType": "uint256",
          "name": "tokenYAmount",
          "type": "uint256"
        },
        {
          "internalType": "uint256",
          "name": "minimumLPTokenAmount",
          "type": "uint256"
        }
      ],
      "name": "addLiquidity",
      "outputs": [
        {
          "internalType": "uint256",
          "name": "LPTokenAmount",
          "type": "uint256"
        }
      ],
      "stateMutability": "nonpayable",
      "type": "function"
    },
    {
      "inputs": [
        {
          "internalType": "address",
          "name": "owner",
          "type": "address"
        },
        {
          "internalType": "address",
          "name": "spender",
          "type": "address"
        }
      ],
      "name": "allowance",
      "outputs": [
        {
          "internalType": "uint256",
          "name": "",
          "type": "uint256"
        }
      ],
      "stateMutability": "view",
      "type": "function"
    },
    {
      "inputs": [
        {
          "internalType": "address",
          "name": "spender",
          "type": "address"
        },
        {
          "internalType": "uint256",
          "name": "amount",
          "type": "uint256"
        }
      ],
      "name": "approve",
      "outputs": [
        {
          "internalType": "bool",
          "name": "",
          "type": "bool"
        }
      ],
      "stateMutability": "nonpayable",
      "type": "function"
    },
    {
      "inputs": [
        {
          "internalType": "address",
          "name": "account",
          "type": "address"
        }
      ],
      "name": "balanceOf",
      "outputs": [
        {
          "internalType": "uint256",
          "name": "",
          "type": "uint256"
        }
      ],
      "stateMutability": "view",
      "type": "function"
    },
    {
      "inputs": [],
      "name": "decimals",
      "outputs": [
        {
          "internalType": "uint8",
          "name": "",
          "type": "uint8"
        }
      ],
      "stateMutability": "view",
      "type": "function"
    },
    {
      "inputs": [
        {
          "internalType": "address",
          "name": "spender",
          "type": "address"
        },
        {
          "internalType": "uint256",
          "name": "subtractedValue",
          "type": "uint256"
        }
      ],
      "name": "decreaseAllowance",
      "outputs": [
        {
          "internalType": "bool",
          "name": "",
          "type": "bool"
        }
      ],
      "stateMutability": "nonpayable",
      "type": "function"
    },
    {
      "inputs": [],
      "name": "getReserves",
      "outputs": [
        {
          "internalType": "uint112",
          "name": "_reserve0",
          "type": "uint112"
        },
        {
          "internalType": "uint112",
          "name": "_reserve1",
          "type": "uint112"
        }
      ],
      "stateMutability": "nonpayable",
      "type": "function"
    },
    {
      "inputs": [
        {
          "internalType": "address",
          "name": "spender",
          "type": "address"
        },
        {
          "internalType": "uint256",
          "name": "addedValue",
          "type": "uint256"
        }
      ],
      "name": "increaseAllowance",
      "outputs": [
        {
          "internalType": "bool",
          "name": "",
          "type": "bool"
        }
      ],
      "stateMutability": "nonpayable",
      "type": "function"
    },
    {
      "inputs": [],
      "name": "k",
      "outputs": [
        {
          "internalType": "uint256",
          "name": "",
          "type": "uint256"
        }
      ],
      "stateMutability": "view",
      "type": "function"
    },
    {
      "inputs": [],
      "name": "name",
      "outputs": [
        {
          "internalType": "string",
          "name": "",
          "type": "string"
        }
      ],
      "stateMutability": "view",
      "type": "function"
    },
    {
      "inputs": [
        {
          "internalType": "uint256",
          "name": "LPTokenAmount",
          "type": "uint256"
        },
        {
          "internalType": "uint256",
          "name": "minimumTokenXAmount",
          "type": "uint256"
        },
        {
          "internalType": "uint256",
          "name": "minimumTokenYAmount",
          "type": "uint256"
        }
      ],
      "name": "removeLiquidity",
      "outputs": [],
      "stateMutability": "nonpayable",
      "type": "function"
    },
    {
      "inputs": [
        {
          "internalType": "uint256",
          "name": "tokenXAmount",
          "type": "uint256"
        },
        {
          "internalType": "uint256",
          "name": "tokenYAmount",
          "type": "uint256"
        },
        {
          "internalType": "uint256",
          "name": "tokenMinimumOutputAmount",
          "type": "uint256"
        }
      ],
      "name": "swap",
      "outputs": [
        {
          "internalType": "uint256",
          "name": "outputAmount",
          "type": "uint256"
        }
      ],
      "stateMutability": "nonpayable",
      "type": "function"
    },
    {
      "inputs": [],
      "name": "symbol",
      "outputs": [
        {
          "internalType": "string",
          "name": "",
          "type": "string"
        }
      ],
      "stateMutability": "view",
      "type": "function"
    },
    {
      "inputs": [],
      "name": "tokenX",
      "outputs": [
        {
          "internalType": "address",
          "name": "",
          "type": "address"
        }
      ],
      "stateMutability": "view",
      "type": "function"
    },
    {
      "inputs": [],
      "name": "tokenY",
      "outputs": [
        {
          "internalType": "address",
          "name": "",
          "type": "address"
        }
      ],
      "stateMutability": "view",
      "type": "function"
    },
    {
      "inputs": [],
      "name": "totalSupply",
      "outputs": [
        {
          "internalType": "uint256",
          "name": "",
          "type": "uint256"
        }
      ],
      "stateMutability": "view",
      "type": "function"
    },
    {
      "inputs": [
        {
          "internalType": "address",
          "name": "to",
          "type": "address"
        },
        {
          "internalType": "uint256",
          "name": "amount",
          "type": "uint256"
        }
      ],
      "name": "transfer",
      "outputs": [
        {
          "internalType": "bool",
          "name": "",
          "type": "bool"
        }
      ],
      "stateMutability": "nonpayable",
      "type": "function"
    },
    {
      "inputs": [
        {
          "internalType": "address",
          "name": "from",
          "type": "address"
        },
        {
          "internalType": "address",
          "name": "to",
          "type": "address"
        },
        {
          "internalType": "uint256",
          "name": "amount",
          "type": "uint256"
        }
      ],
      "name": "transferFrom",
      "outputs": [
        {
          "internalType": "bool",
          "name": "",
          "type": "bool"
        }
      ],
      "stateMutability": "nonpayable",
      "type": "function"
    }
  ],
  "bytecode": {
    "object": "0x608060405260016009553480156200001657600080fd5b50604051620019af380380620019af8339810160408190526200003991620000ea565b604051806040016040528060068152602001656b6b79756e6760d01b815250604051806040016040528060038152602001624b595560e81b8152508160039081620000859190620001c7565b506004620000948282620001c7565b5050600580546001600160a01b039485166001600160a01b03199182161790915560068054939094169216919091179091555062000293565b80516001600160a01b0381168114620000e557600080fd5b919050565b60008060408385031215620000fe57600080fd5b6200010983620000cd565b91506200011960208401620000cd565b90509250929050565b634e487b7160e01b600052604160045260246000fd5b600181811c908216806200014d57607f821691505b6020821081036200016e57634e487b7160e01b600052602260045260246000fd5b50919050565b601f821115620001c257600081815260208120601f850160051c810160208610156200019d5750805b601f850160051c820191505b81811015620001be57828155600101620001a9565b5050505b505050565b81516001600160401b03811115620001e357620001e362000122565b620001fb81620001f4845462000138565b8462000174565b602080601f8311600181146200023357600084156200021a5750858301515b600019600386901b1c1916600185901b178555620001be565b600085815260208120601f198616915b82811015620002645788860151825594840194600190910190840162000243565b5085821015620002835787850151600019600388901b60f8161c191681555b5050505050600190811b01905550565b61170c80620002a36000396000f3fe608060405234801561001057600080fd5b50600436106101165760003560e01c806370a08231116100a2578063a457c2d711610071578063a457c2d71461025e578063a9059cbb14610271578063b4f40c6114610284578063b7d19fc41461028d578063dd62ed3e146102a057600080fd5b806370a0823114610205578063857620e11461022e57806395d89b41146102435780639d9892cd1461024b57600080fd5b806318160ddd116100e957806318160ddd146101ab57806323b872dd146101bd578063313ce567146101d057806339509351146101df578063422f1043146101f257600080fd5b806306fdde031461011b5780630902f1ac14610139578063095ea7b31461015d57806316dc165b14610180575b600080fd5b6101236102b3565b6040516101309190611476565b60405180910390f35b600780546001600160e01b0319169055604080516000808252602082015201610130565b61017061016b3660046114db565b610345565b6040519015158152602001610130565b600554610193906001600160a01b031681565b6040516001600160a01b039091168152602001610130565b6002545b604051908152602001610130565b6101706101cb366004611505565b61035f565b60405160128152602001610130565b6101706101ed3660046114db565b610383565b6101af610200366004611541565b6103a5565b6101af61021336600461156d565b6001600160a01b031660009081526020819052604090205490565b61024161023c366004611541565b6107db565b005b610123610adb565b6101af610259366004611541565b610aea565b61017061026c3660046114db565b610bdf565b61017061027f3660046114db565b610c5a565b6101af60085481565b600654610193906001600160a01b031681565b6101af6102ae366004611588565b610c68565b6060600380546102c2906115bb565b80601f01602080910402602001604051908101604052809291908181526020018280546102ee906115bb565b801561033b5780601f106103105761010080835404028352916020019161033b565b820191906000526020600020905b81548152906001019060200180831161031e57829003601f168201915b5050505050905090565b600033610353818585610c93565b60019150505b92915050565b60003361036d858285610db8565b610378858585610e32565b506001949350505050565b6000336103538185856103968383610c68565b6103a09190611605565b610c93565b6005546040516370a0823160e01b815233600482015260009185916001600160a01b03909116906370a0823190602401602060405180830381865afa1580156103f2573d6000803e3d6000fd5b505050506040513d601f19601f820116820180604052508101906104169190611618565b101561045b5760405162461bcd60e51b815260206004820152600f60248201526e696e76616c69642062616c616e636560881b60448201526064015b60405180910390fd5b6006546040516370a0823160e01b815233600482015284916001600160a01b0316906370a0823190602401602060405180830381865afa1580156104a3573d6000803e3d6000fd5b505050506040513d601f19601f820116820180604052508101906104c79190611618565b10156105075760405162461bcd60e51b815260206004820152600f60248201526e696e76616c69642062616c616e636560881b6044820152606401610452565b6005546040516370a0823160e01b81523060048201526000916001600160a01b0316906370a0823190602401602060405180830381865afa158015610550573d6000803e3d6000fd5b505050506040513d601f19601f820116820180604052508101906105749190611618565b6006546040516370a0823160e01b81523060048201529192506000916001600160a01b03909116906370a0823190602401602060405180830381865afa1580156105c2573d6000803e3d6000fd5b505050506040513d601f19601f820116820180604052508101906105e69190611618565b6005546040516323b872dd60e01b8152336004820152306024820152604481018990529192506001600160a01b0316906323b872dd906064016020604051808303816000875af115801561063e573d6000803e3d6000fd5b505050506040513d601f19601f820116820180604052508101906106629190611631565b506006546040516323b872dd60e01b8152336004820152306024820152604481018790526001600160a01b03909116906323b872dd906064016020604051808303816000875af11580156106ba573d6000803e3d6000fd5b505050506040513d601f19601f820116820180604052508101906106de9190611631565b506106e98582611605565b6106f38784611605565b6106fd9190611653565b6008556002546000036107235761071c6107178688611653565b610fd6565b925061076a565b6107678261073060025490565b61073a9089611653565b6107449190611672565b8261074e60025490565b6107589089611653565b6107629190611672565b611046565b92505b600083116107a85760405162461bcd60e51b815260206004820152600b60248201526a1e995c9bc8185b5bdd5b9d60aa1b6044820152606401610452565b838310156107c85760405162461bcd60e51b815260040161045290611694565b6107d2338461105e565b50509392505050565b60025483106108245760405162461bcd60e51b81526020600482015260156024820152741a5b9d985b1a59081314151bdad95b905b5bdd5b9d605a1b6044820152606401610452565b6005546040516370a0823160e01b81523060048201526000916001600160a01b0316906370a0823190602401602060405180830381865afa15801561086d573d6000803e3d6000fd5b505050506040513d601f19601f820116820180604052508101906108919190611618565b6006546040516370a0823160e01b81523060048201529192506000916001600160a01b03909116906370a0823190602401602060405180830381865afa1580156108df573d6000803e3d6000fd5b505050506040513d601f19601f820116820180604052508101906109039190611618565b9050600061091060025490565b61091a8488611653565b6109249190611672565b9050600061093160025490565b61093b8489611653565b6109459190611672565b90506000821180156109575750600081115b6109915760405162461bcd60e51b815260206004820152600b60248201526a1e995c9bc8185b5bdd5b9d60aa1b6044820152606401610452565b858211801561099f57508481115b6109bb5760405162461bcd60e51b815260040161045290611694565b6109c5338861111d565b60055460405163a9059cbb60e01b8152336004820152602481018490526001600160a01b039091169063a9059cbb906044016020604051808303816000875af1158015610a16573d6000803e3d6000fd5b505050506040513d601f19601f82011682018060405250810190610a3a9190611631565b5060065460405163a9059cbb60e01b8152336004820152602481018390526001600160a01b039091169063a9059cbb906044016020604051808303816000875af1158015610a8c573d6000803e3d6000fd5b505050506040513d601f19601f82011682018060405250810190610ab09190611631565b50610abb81846116c3565b610ac583866116c3565b610acf9190611653565b60085550505050505050565b6060600480546102c2906115bb565b6000600954600114610b275760405162461bcd60e51b81526020600482015260066024820152651313d0d2d15160d21b6044820152606401610452565b60006009819055808080868810610b52576005546006546001600160a01b0391821691168989610b68565b6006546005546001600160a01b039182169116888a5b935093509350935081600014158015610b7f575080155b610bc25760405162461bcd60e51b81526020600482015260146024820152731a5b9d985b1a59081d1bdad95b88105b5bdd5b9d60621b6044820152606401610452565b610bce84848489611247565b600160095598975050505050505050565b60003381610bed8286610c68565b905083811015610c4d5760405162461bcd60e51b815260206004820152602560248201527f45524332303a2064656372656173656420616c6c6f77616e63652062656c6f77604482015264207a65726f60d81b6064820152608401610452565b6103788286868403610c93565b600033610353818585610e32565b6001600160a01b03918216600090815260016020908152604080832093909416825291909152205490565b6001600160a01b038316610cf55760405162461bcd60e51b8152602060048201526024808201527f45524332303a20617070726f76652066726f6d20746865207a65726f206164646044820152637265737360e01b6064820152608401610452565b6001600160a01b038216610d565760405162461bcd60e51b815260206004820152602260248201527f45524332303a20617070726f766520746f20746865207a65726f206164647265604482015261737360f01b6064820152608401610452565b6001600160a01b0383811660008181526001602090815260408083209487168084529482529182902085905590518481527f8c5be1e5ebec7d5bd14f71427d1e84f3dd0314c0f7b2291e5b200ac8c7c3b92591015b60405180910390a3505050565b6000610dc48484610c68565b90506000198114610e2c5781811015610e1f5760405162461bcd60e51b815260206004820152601d60248201527f45524332303a20696e73756666696369656e7420616c6c6f77616e63650000006044820152606401610452565b610e2c8484848403610c93565b50505050565b6001600160a01b038316610e965760405162461bcd60e51b815260206004820152602560248201527f45524332303a207472616e736665722066726f6d20746865207a65726f206164604482015264647265737360d81b6064820152608401610452565b6001600160a01b038216610ef85760405162461bcd60e51b815260206004820152602360248201527f45524332303a207472616e7366657220746f20746865207a65726f206164647260448201526265737360e81b6064820152608401610452565b6001600160a01b03831660009081526020819052604090205481811015610f705760405162461bcd60e51b815260206004820152602660248201527f45524332303a207472616e7366657220616d6f756e7420657863656564732062604482015265616c616e636560d01b6064820152608401610452565b6001600160a01b03848116600081815260208181526040808320878703905593871680835291849020805487019055925185815290927fddf252ad1be2c89b69c2b068fc378daa952ba7f163c4a11628f55a4df523b3ef910160405180910390a3610e2c565b600060038211156110375750806000610ff0600283611672565b610ffb906001611605565b90505b81811015611031579050806002816110168186611672565b6110209190611605565b61102a9190611672565b9050610ffe565b50919050565b8115611041575060015b919050565b60008183106110555781611057565b825b9392505050565b6001600160a01b0382166110b45760405162461bcd60e51b815260206004820152601f60248201527f45524332303a206d696e7420746f20746865207a65726f2061646472657373006044820152606401610452565b80600260008282546110c69190611605565b90915550506001600160a01b038216600081815260208181526040808320805486019055518481527fddf252ad1be2c89b69c2b068fc378daa952ba7f163c4a11628f55a4df523b3ef910160405180910390a35050565b6001600160a01b03821661117d5760405162461bcd60e51b815260206004820152602160248201527f45524332303a206275726e2066726f6d20746865207a65726f206164647265736044820152607360f81b6064820152608401610452565b6001600160a01b038216600090815260208190526040902054818110156111f15760405162461bcd60e51b815260206004820152602260248201527f45524332303a206275726e20616d6f756e7420657863656564732062616c616e604482015261636560f01b6064820152608401610452565b6001600160a01b0383166000818152602081815260408083208686039055600280548790039055518581529192917fddf252ad1be2c89b69c2b068fc378daa952ba7f163c4a11628f55a4df523b3ef9101610dab565b6040516370a0823160e01b815230600482015260009081906001600160a01b038716906370a0823190602401602060405180830381865afa158015611290573d6000803e3d6000fd5b505050506040513d601f19601f820116820180604052508101906112b49190611618565b6040516370a0823160e01b81523060048201529091506000906001600160a01b038716906370a0823190602401602060405180830381865afa1580156112fe573d6000803e3d6000fd5b505050506040513d601f19601f820116820180604052508101906113229190611618565b905060006113326103e887611672565b61133c90876116c3565b90506113488184611605565b6008546113559190611672565b61135f90836116c3565b9350848410156113815760405162461bcd60e51b815260040161045290611694565b6040516323b872dd60e01b8152336004820152306024820152604481018290526001600160a01b038916906323b872dd906064016020604051808303816000875af11580156113d4573d6000803e3d6000fd5b505050506040513d601f19601f820116820180604052508101906113f89190611631565b5060405163a9059cbb60e01b8152336004820152602481018590526001600160a01b0388169063a9059cbb906044016020604051808303816000875af1158015611446573d6000803e3d6000fd5b505050506040513d601f19601f8201168201806040525081019061146a9190611631565b50505050949350505050565b600060208083528351808285015260005b818110156114a357858101830151858201604001528201611487565b506000604082860101526040601f19601f8301168501019250505092915050565b80356001600160a01b038116811461104157600080fd5b600080604083850312156114ee57600080fd5b6114f7836114c4565b946020939093013593505050565b60008060006060848603121561151a57600080fd5b611523846114c4565b9250611531602085016114c4565b9150604084013590509250925092565b60008060006060848603121561155657600080fd5b505081359360208301359350604090920135919050565b60006020828403121561157f57600080fd5b611057826114c4565b6000806040838503121561159b57600080fd5b6115a4836114c4565b91506115b2602084016114c4565b90509250929050565b600181811c908216806115cf57607f821691505b60208210810361103157634e487b7160e01b600052602260045260246000fd5b634e487b7160e01b600052601160045260246000fd5b80820180821115610359576103596115ef565b60006020828403121561162a57600080fd5b5051919050565b60006020828403121561164357600080fd5b8151801515811461105757600080fd5b600081600019048311821515161561166d5761166d6115ef565b500290565b60008261168f57634e487b7160e01b600052601260045260246000fd5b500490565b602080825260159082015274195e18d95959081b5a5b9a5b5d5b48185b5bdd5b9d605a1b604082015260600190565b81810381811115610359576103596115ef56fea264697066735822122033c945d424dc219f811ae9f86091835a4c8f1cff58ae3c2c8bb0dfe6a8dc942f64736f6c63430008100033",
    "linkReferences": {}
  },
  "methodIdentifiers": {
    "addLiquidity(uint256,uint256,uint256)": "422f1043",
    "allowance(address,address)": "dd62ed3e",
    "approve(address,uint256)": "095ea7b3",
    "balanceOf(address)": "70a08231",
    "decimals()": "313ce567",
    "decreaseAllowance(address,uint256)": "a457c2d7",
    "getReserves()": "0902f1ac",
    "increaseAllowance(address,uint256)": "39509351",
    "k()": "b4f40c61",
    "name()": "06fdde03",
    "removeLiquidity(uint256,uint256,uint256)": "857620e1",
    "swap(uint256,uint256,uint256)": "9d9892cd",
    "symbol()": "95d89b41",
    "tokenX()": "16dc165b",
    "tokenY()": "b7d19fc4",
    "totalSupply()": "18160ddd",
    "transfer(address,uint256)": "a9059cbb",
    "transferFrom(address,address,uint256)": "23b872dd"
  },
  "id": 13
}